:100000000C9462000C948A000C948A000C948A0070
:100010000C948A000C948A000C948A000C948A0038
:100020000C948A000C948A000C948A000C948A0028
:100030000C948A000C948A000C948A000C948A0018
:100040000C94B7020C948A000C9427030C940103BF
:100050000C948A000C948A000C948A000C948A00F8
:100060000C948A000C948A000000000024002700F1
:100070002A0000000000250028002B0000000000DE
:1000800023002600290004040404040404040202DA
:100090000202020203030303030301020408102007
:1000A0004080010204081020010204081020000012
:1000B0000008000201000003040700000000000027
:1000C0000000BD0411241FBECFEFD8E0DEBFCDBFBE
:1000D00011E0A0E0B1E0E8E2FAE002C005900D9284
:1000E000A033B107D9F721E0A0E3B1E001C01D9230
:1000F000AE3DB207E1F710E0C2E6D0E004C02197C0
:10010000FE010E940C05C136D107C9F70E945903B0
:100110000C9412050C940000833081F028F4813097
:1001200099F08230A9F008958730A9F08830C9F09D
:100130008430B1F4809180008F7D03C08091800075
:100140008F7780938000089584B58F7784BD08955C
:1001500084B58F7DFBCF8091B0008F778093B00006
:1001600008958091B0008F7DF9CFCF93DF93E0EBBE
:10017000F0E08491ECE9F0E0D491E8E8F0E0C4919B
:10018000CC23A1F081110E948C00EC2FF0E0EE0F47
:10019000FF1FE458FF4FA591B491EC91ED2381E04E
:1001A00090E009F480E0DF91CF91089580E090E045
:1001B000FACF1F93CF93DF93282F30E0F901E25558
:1001C000FF4F8491F901E656FF4FD491F901EA57A8
:1001D000FF4FC491CC23A9F0162F81110E948C00EF
:1001E000EC2FF0E0EE0FFF1FEE58FF4FA591B491FA
:1001F0008FB7F894EC91111108C0D095DE23DC93F1
:100200008FBFDF91CF911F910895DE2BF8CFCF9351
:10021000DF9390E0FC01E656FF4F24918A579F4FF1
:10022000FC0184918823D1F090E0880F991FFC0194
:10023000E859FF4FA591B491FC01EE58FF4FC591CD
:10024000D49161110EC09FB7F8948C91E22FE09584
:100250008E238C932881E223E8839FBFDF91CF9187
:1002600008958FB7F894EC91E22BEC938FBFF6CF03
:10027000AF92BF92CF92DF92EF92FF920F931F93B4
:10028000CF93DF936C017B018B01040F151FEB01F2
:100290005E01AE18BF08C017D10759F06991D601A9
:1002A000ED91FC910190F081E02DC6010995892B1B
:1002B00079F7C501DF91CF911F910F91FF90EF90DA
:1002C000DF90CF90BF90AF900895FC01538D448D87
:1002D000252F30E0842F90E0821B930B541710F0F1
:1002E000CF96089501970895FC01918D828D9817FE
:1002F00061F0A28DAE0FBF2FB11D5D968C91928DD6
:100300009F5F9F73928F90E008958FEF9FEF089506
:10031000FC01918D828D981731F0828DE80FF11DCF
:10032000858D90E008958FEF9FEF0895FC01918DEA
:10033000228D892F90E0805C9F4F821B91098F73E3
:100340009927089581E491E00E94960121E0892B8C
:1003500009F420E0822F089580E090E0892B29F0B5
:100360000E94A20181110C9400000895FC01A48D4B
:10037000A80FB92FB11DA35ABF4F2C91848D90E0C7
:1003800001968F739927848FA689B7892C93A089AA
:10039000B1898C91837080648C93938D848D981334
:1003A00006C00288F389E02D80818F7D80830895C7
:1003B000EF92FF920F931F93CF93DF93EC0181E0B5
:1003C000888F9B8D8C8D98131AC0E889F98980815C
:1003D00085FF15C09FB7F894EE89FF896083E8898F
:1003E000F98980818370806480839FBF81E090E081
:1003F000DF91CF911F910F91FF90EF900895F62E0E
:100400000B8D10E00F5F1F4F0F731127E02E8C8DA7
:100410008E110CC00FB607FCFACFE889F9898081EC
:1004200085FFF5CFCE010E94B601F1CFEB8DEC0F29
:10043000FD2FF11DE35AFF4FF0829FB7F8940B8F09
:10044000EA89FB8980818062CFCFCF93DF93EC0173
:10045000888D8823B9F0AA89BB89E889F9898C91AC
:1004600085FD03C0808186FD0DC00FB607FCF7CF68
:100470008C9185FFF2CF808185FFEDCFCE010E9468
:10048000B601E9CFDF91CF910895FC0101900020E2
:10049000E9F73197AF01481B590BBC0181E491E0AA
:1004A0000C9438018F929F92AF92BF920F931F933B
:1004B000CF93DF93CDB7DEB7A1970FB6F894DEBF29
:1004C0000FBECDBF19A2423008F44AE08E010F5D85
:1004D0001F4F842E912CB12CA12CA50194010E94B8
:1004E000EA04E62FB901CA01EA30F4F4E05DD8016C
:1004F000EE938D01232B242B252B79F790E080E0C0
:10050000109719F0CD010E944502A1960FB6F894FC
:10051000DEBF0FBECDBFDF91CF911F910F91BF9076
:10052000AF909F908F900895E95CE1CFCF92DF92DA
:10053000EF92FF92CF93DF936B017C016DE281E438
:1005400091E00E94D801EC0166277727CB016C1956
:100550007D098E099F094AE00E9452028C0F9D1F5F
:10056000DF91CF91FF90EF90DF90CF9008951F9291
:100570000F920FB60F9211242F933F938F939F9357
:10058000AF93BF9380913D0190913E01A0913F01B7
:10059000B091400130913C0123E0230F2D3758F5F5
:1005A0000196A11DB11D20933C0180933D019093C4
:1005B0003E01A0933F01B09340018091380190919A
:1005C0003901A0913A01B0913B010196A11DB11DE5
:1005D0008093380190933901A0933A01B0933B0185
:1005E000BF91AF919F918F913F912F910F900FBE2F
:1005F0000F901F90189526E8230F0296A11DB11D9C
:10060000D2CF1F920F920FB60F9211242F933F93C8
:100610004F935F936F937F938F939F93AF93BF930A
:10062000EF93FF9381E491E00E94B601FF91EF9177
:10063000BF91AF919F918F917F916F915F914F91FA
:100640003F912F910F900FBE0F901F9018951F9202
:100650000F920FB60F9211242F938F939F93EF93C6
:10066000FF93E0915101F09152018081E091570197
:10067000F091580182FD1BC0908180915A018F5FDB
:100680008F7320915B01821741F0E0915A01F0E0F5
:10069000EF5BFE4F958F80935A01FF91EF919F91F1
:1006A0008F912F910F900FBE0F901F901895808102
:1006B000F4CF789484B5826084BD84B5816084BDB4
:1006C00085B5826085BD85B5816085BD80916E00F0
:1006D000816080936E001092810080918100826021
:1006E000809381008091810081608093810080915E
:1006F00080008160809380008091B100846080934D
:10070000B1008091B00081608093B00080917A0048
:10071000846080937A0080917A00826080937A006E
:1007200080917A00816080937A0080917A0080685D
:1007300080937A001092C100E0915101F091520132
:1007400082E08083E0914D01F0914E011082E091B2
:100750004F01F091500180E1808310925901E091A6
:100760005501F091560186E08083E0915301F091AC
:100770005401808180618083E0915301F0915401A4
:10078000808188608083E0915301F09154018081E1
:1007900080688083E0915301F091540180818F7DC6
:1007A000808360E082E00E94070161E08DE00E94AA
:1007B000070161E088E00E9407010E94B500809374
:1007C000360190933701682F8DE00E94D90082E1B5
:1007D00091E00E94450288E191E00E9445022FB716
:1007E000F89480913D0190913E01A0913F01B0911C
:1007F00040012FBF8C599F4FAF4FBF4F80933201A5
:1008000090933301A0933401B093350180E4F82E26
:1008100000E010E00E94B500EC018091360190915B
:100820003701C817D90799F1D0933701C093360122
:100830006C2F8DE00E94D9008BE191E00E9445026F
:10084000BE01DD0F880B990B97FF7FC00E949602B7
:100850008FE191E00E944502F0927C0080917A0045
:10086000806480937A0080917A0086FDFCCF60914D
:10087000780070917900072E000C880B990B97FF78
:1008800068C00E94960288E191E00E9445028FB7FD
:10089000F89440913D0150913E0160913F0170916B
:1008A00040018FBF8091320190913301A0913401BA
:1008B000B0913501481759076A077B0788F18C59B1
:1008C0009F4FAF4FBF4F8093320190933301A0935E
:1008D0003401B093350161E0809130019091310194
:1008E000892B09F060E0862F90E09093310180938E
:1008F000300188E00E94D90085E291E00E94450223
:100900006091300170913101072E000C880B990B1A
:1009100097FF23C00E94960288E191E00E94450261
:1009200081E491E00E94960118161906D4F48BE236
:1009300091E00E94450281E491E00E947401682FD9
:1009400081E491E00E94D801E7CF4AE00E94520280
:100950007FCF4AE00E94520296CF4AE00E945202A4
:10096000DBCF0115110509F455CF0E94A2018823A0
:1009700009F450CF0E9400004DCFE1E4F1E0138272
:10098000128288EE93E0A0E0B0E084839583A68392
:10099000B78384E091E09183808385EC90E0958734
:1009A000848784EC90E09787868780EC90E0918B39
:1009B000808B81EC90E0938B828B82EC90E0958B26
:1009C000848B86EC90E0978B868B118E128E138E23
:1009D000148E0895A1E21A2EAA1BBB1BFD010DC0A7
:1009E000AA1FBB1FEE1FFF1FA217B307E407F507DF
:1009F00020F0A21BB30BE40BF50B661F771F881FBB
:100A0000991F1A9469F760957095809590959B0150
:100A1000AC01BD01CF010895EE0FFF1F0590F491C9
:080A2000E02D0994F894FFCFCA
:100A280000000000D8013801650125029601740113
:100A380088017265616479000D0A00696E3D0020C5
:100A48006164633D0062656174200072783D000056
:00000001FF
